8=FIX.4.4|9=78|35=A|34=1|49=FIXInitiator|52=20160229-14:26:41.638|56=FIXAcceptor|98=0|108=30|10=192|
8=FIX.4.4|9=78|35=A|34=1|49=FIXAcceptor|52=20160229-14:26:41.719|56=FIXInitiator|98=0|108=30|10=192|
8=FIX.4.4|9=66|35=0|34=2|49=FIXInitiator|52=20160229-14:27:12.552|56=FIXAcceptor|10=142|
8=FIX.4.4|9=66|35=0|34=2|49=FIXAcceptor|52=20160229-14:27:12.555|56=FIXInitiator|10=145|
8=FIX.4.4|9=78|35=A|34=3|49=FIXInitiator|52=20160229-14:27:49.485|56=FIXAcceptor|98=0|108=30|10=203|
8=FIX.4.4|9=78|35=A|34=3|49=FIXAcceptor|52=20160229-14:27:49.500|56=FIXInitiator|98=0|108=30|10=191|
8=FIX.4.4|9=66|35=0|34=4|49=FIXAcceptor|52=20160229-14:28:19.624|56=FIXInitiator|10=152|
8=FIX.4.4|9=66|35=0|34=4|49=FIXInitiator|52=20160229-14:28:19.627|56=FIXAcceptor|10=155|
8=FIX.4.4|9=78|35=A|34=5|49=FIXInitiator|52=20160229-14:34:12.293|56=FIXAcceptor|98=0|108=30|10=190|
8=FIX.4.4|9=78|35=A|34=5|49=FIXAcceptor|52=20160229-14:34:12.304|56=FIXInitiator|98=0|108=30|10=183|
8=FIX.4.4|9=66|35=0|34=6|49=FIXAcceptor|52=20160229-14:34:42.624|56=FIXInitiator|10=147|
8=FIX.4.4|9=66|35=0|34=6|49=FIXInitiator|52=20160229-14:34:42.649|56=FIXAcceptor|10=154|
8=FIX.4.4|9=66|35=0|34=7|49=FIXAcceptor|52=20160229-14:35:12.624|56=FIXInitiator|10=146|
8=FIX.4.4|9=66|35=0|34=7|49=FIXInitiator|52=20160229-14:35:13.274|56=FIXAcceptor|10=148|
8=FIX.4.4|9=66|35=0|34=8|49=FIXAcceptor|52=20160229-14:35:42.624|56=FIXInitiator|10=150|
8=FIX.4.4|9=66|35=0|34=8|49=FIXInitiator|52=20160229-14:35:43.274|56=FIXAcceptor|10=152|
8=FIX.4.4|9=66|35=0|34=9|49=FIXAcceptor|52=20160229-14:36:12.624|56=FIXInitiator|10=149|
8=FIX.4.4|9=66|35=0|34=9|49=FIXInitiator|52=20160229-14:36:13.274|56=FIXAcceptor|10=151|
8=FIX.4.4|9=67|35=0|34=10|49=FIXAcceptor|52=20160229-14:36:42.624|56=FIXInitiator|10=193|
8=FIX.4.4|9=67|35=0|34=10|49=FIXInitiator|52=20160229-14:36:43.274|56=FIXAcceptor|10=195|
8=FIX.4.4|9=67|35=0|34=11|49=FIXAcceptor|52=20160229-14:37:12.624|56=FIXInitiator|10=192|
8=FIX.4.4|9=67|35=0|34=11|49=FIXInitiator|52=20160229-14:37:13.274|56=FIXAcceptor|10=194|
8=FIX.4.4|9=67|35=0|34=12|49=FIXAcceptor|52=20160229-14:37:42.625|56=FIXInitiator|10=197|
8=FIX.4.4|9=67|35=0|34=12|49=FIXInitiator|52=20160229-14:37:43.274|56=FIXAcceptor|10=198|
